:100000000C9446000C9465000C9465000C946500FB
:100010000C9465000C9465000C9465000C946500CC
:100020000C9465000C9465000C9465000C946500BC
:100030000C9465000C94B4000C9465000C9465005D
:100040000C9465000C9465000C9465000C9465009C
:100050000C9465000C9465000C9465000C9465008C
:100060000C9465000C9465000C9465000C9465007C
:100070000C9465000C9465000C9465000C9465006C
:100080000C9465000C9465000C94650011241FBE4F
:10009000CFEFD0E4DEBFCDBF11E0A0E0B1E0EEEEE7
:1000A000F5E000E00BBF02C007900D92A231B1074E
:1000B000D9F721E0A2E1B1E001C01D92A832B20758
:1000C000E1F70E9495020C94F5020C940000CF9386
:1000D000C82F8A3019F48DE00E9467008091C0001B
:1000E00085FFFCCFC093C60080E090E0CF910895DB
:1000F00060930001709301018093020190930301CA
:100100006093120170931301809314019093150171
:1001100008958BE0809381008DE790E090938900B3
:100120008093880082E080936F0010928500109287
:1001300084008091000190910101A0910201B09191
:1001400003018093120190931301A0931401B093C3
:1001500015018FB780688FBF0895109281000895B0
:1001600081E08093160108951F920F920FB60F92AF
:1001700011240BB60F922F933F934F935F936F937E
:100180007F938F939F93AF93BF93EF93FF93809150
:10019000120190911301A0911401B09115010197E2
:1001A000A109B1098093120190931301A093140146
:1001B000B0931501892B8A2B8B2B91F40E94B000F0
:1001C0008091000190910101A0910201B091030181
:1001D0008093120190931301A0931401B093150121
:1001E000FF91EF91BF91AF919F918F917F916F910F
:1001F0005F914F913F912F910F900BBE0F900FBECB
:100200000F901F90189580912201909123010097E3
:1002100019F0019751F010C01092270181E090E091
:1002200090932301809322010BC081E090E0909392
:1002300023018093220104C0109223011092220115
:100240008091220190912301019761F4809127010F
:10025000811104C081E0809327010895813011F459
:1002600010922701089580911B0190911C0181300B
:10027000910571F030F08230910589F00397B1F06B
:100280001CC081E090E090931C0180931B0119C079
:1002900082E090E090931C0180931B0112C083E0E8
:1002A00090E090931C0180931B010BC081E090E0D3
:1002B00090931C0180931B0104C010921C011092AA
:1002C0001B0180911B0190911C018230910549F026
:1002D0008330910551F0019759F481E080931F011B
:1002E000089582E080931F01089584E080931F01A8
:1002F00008958091170190911801009719F00197C6
:1003000041F00EC081E090E09093180180931701B6
:100310000BC081E090E0909318018093170104C016
:1003200010921801109217018091170190911801F5
:100330000197A9F48091270190E0880F991F880FF9
:10034000991F880F991F2091260140E1249F900159
:10035000112490911F01892B822B80932001809181
:10036000200185B9089580B18095837020911D0189
:1003700030911E012130310561F020F0223031052D
:10038000D1F020C021E030E030931E0120931D0108
:100390001DC09FEF980F923038F422E030E0309388
:1003A0001E0120931D0112C021E030E030931E0198
:1003B00020931D010BC021E030E030931E012093FB
:1003C0001D0104C010921E0110921D0120911D01FB
:1003D00030911E012230310520F122303105E9F43F
:1003E000813071F490912401992351F020912501DD
:1003F000222331F091509093240121502093250124
:10040000823079F4809124018F5F80932401809160
:1004100025018F5F80932501089510921E0110928F
:100420001D01089580B1809584702091190130914B
:100430001A012130310591F040F02230310519F1D7
:100440002330310509F443C05BC081E090E0909314
:100450001A01809319011092210156C0811107C021
:1004600081E090E090931A01809319014DC0882398
:1004700009F44AC082E090E090931A018093190138
:100480001092210141C0811107C081E090E090935A
:100490001A018093190138C08091210190912401A3
:1004A000981750F022E030E030931A0120931901A0
:1004B0008F5F8093210128C0981730F583E090E08A
:1004C00090931A0180931901109221011DC080910F
:1004D000210190912501981750F023E030E03093EE
:1004E0001A01209319018F5F809321010DC0981785
:1004F00058F482E090E090931A018093190104C0AF
:1005000010921A01109219018091190190911A010B
:100510008230910519F0039729F0089581E08093C6
:100520002601089510922601089511B88FEF82B91F
:1005300084B915B861E070E080E090E00E94780036
:100540000E948900109223011092220110921C0136
:1005500010921B01109218011092170110921A01AB
:100560001092190110921E0110921D010F2EFCE233
:100570008F2E99249394A12CB12CF02D0F2EF8EEF0
:10058000CF2EF3E0DF2EE12CF12CF02D88EEC816F3
:1005900083E0D806E104F10428F00E940301C12C95
:1005A000D12C76018CE2881681E09806A104B10472
:1005B00028F00E943301812C912C54010E94790172
:1005C0000E9412020E94B301809116018823E1F378
:1005D000109216018FEFC81AD80AE80AF80A8FEFAE
:0E05E000881A980AA80AB80AD1CFF894FFCF5B
:1005EE000100000000000002000000006700000093
:0205FE000000FB
:00000001FF
