:100000000C9446000C9465000C9465000C946500FB
:100010000C9465000C9465000C9465000C946500CC
:100020000C9465000C9465000C9465000C946500BC
:100030000C9465000C94B4000C9465000C9465005D
:100040000C9465000C9465000C9465000C9465009C
:100050000C9465000C9465000C9465000C9465008C
:100060000C9465000C9465000C9465000C9465007C
:100070000C9465000C9465000C9465000C9465006C
:100080000C9465000C9465000C94650011241FBE4F
:10009000CFEFD0E4DEBFCDBF11E0A0E0B1E0EEE2F3
:1000A000F5E000E00BBF02C007900D92A231B1074E
:1000B000D9F721E0A2E1B1E001C01D92A632B2075A
:1000C000E1F70E943B020C9495020C940000CF9340
:1000D000C82F8A3019F48DE00E9467008091C0001B
:1000E00085FFFCCFC093C60080E090E0CF910895DB
:1000F00060930001709301018093020190930301CA
:100100006093120170931301809314019093150171
:1001100008958BE0809381008DE790E090938900B3
:100120008093880082E080936F0010928500109287
:1001300084008091000190910101A0910201B09191
:1001400003018093120190931301A0931401B093C3
:1001500015018FB780688FBF0895109281000895B0
:1001600081E08093160108951F920F920FB60F92AF
:1001700011240BB60F922F933F934F935F936F937E
:100180007F938F939F93AF93BF93EF93FF93809150
:10019000120190911301A0911401B09115010197E2
:1001A000A109B1098093120190931301A093140146
:1001B000B0931501892B8A2B8B2B91F40E94B000F0
:1001C0008091000190910101A0910201B091030181
:1001D0008093120190931301A0931401B093150121
:1001E000FF91EF91BF91AF919F918F917F916F910F
:1001F0005F914F913F912F910F900BBE0F900FBECB
:100200000F901F90189580912001909121010097E7
:1002100019F0019751F010C01092250181E090E093
:1002200090932101809320010BC081E090E0909396
:1002300021018093200104C010922101109220011D
:100240008091200190912101019761F48091250115
:10025000811104C081E0809325010895813011F45B
:1002600010922501089580911B0190911C0181300D
:10027000910571F030F08230910589F00397B1F06B
:100280001CC081E090E090931C0180931B0119C079
:1002900082E090E090931C0180931B0112C083E0E8
:1002A00090E090931C0180931B010BC081E090E0D3
:1002B00090931C0180931B0104C010921C011092AA
:1002C0001B0180911B0190911C018230910549F026
:1002D0008330910551F0019759F481E080931D011D
:1002E000089582E080931D01089584E080931D01AC
:1002F00008958091170190911801009719F00197C6
:1003000041F00EC081E090E09093180180931701B6
:100310000BC081E090E0909318018093170104C016
:1003200010921801109217018091170190911801F5
:100330000197A9F48091250190E0880F991F880FFB
:10034000991F880F991F2091240140E1249F90015B
:10035000112490911D01892B822B80931E01809185
:100360001E0185B9089580B180958470209119018E
:1003700030911A0121303105B9F040F022303105B9
:1003800041F12330310509F448C060C081E090E0BC
:1003900090931A018093190110921F0182E08093BB
:1003A00023018093220156C0811107C081E090E0B3
:1003B00090931A01809319014DC0882309F44AC013
:1003C00082E090E090931A018093190110921F012E
:1003D00041C0811107C081E090E090931A018093A1
:1003E000190138C080911F0190912201981750F097
:1003F00022E030E030931A01209319018F5F80933F
:100400001F0128C0981730F583E090E090931A01FF
:100410008093190110921F011DC080911F019091BE
:100420002301981750F023E030E030931A01209315
:1004300019018F5F80931F010DC0981758F482E057
:1004400090E090931A018093190104C010921A0150
:10045000109219018091190190911A018230910531
:1004600019F0039729F0089581E0809324010895FD
:1004700010922401089511B88FEF82B984B915B88C
:1004800061E070E080E090E00E9478000E948900C6
:10049000109221011092200110921C0110921B0158
:1004A000109218011092170110921A01109219015E
:1004B0000F2EFCE28F2E99249394A12CB12CF02DB9
:1004C0000F2EF8EECF2EF3E0DF2EE12CF12CF02DE5
:1004D00088EEC81683E0D806E104F10428F00E94F3
:1004E0000301C12CD12C76018CE2881681E098069C
:1004F000A104B10428F00E943301812C912C5401F5
:100500000E9479010E94B301809116018823E1F3D2
:10051000109216018FEFC81AD80AE80AF80A8FEF6E
:0E052000881A980AA80AB80AD3CFF894FFCF19
:10052E000100000000000002000000006700000053
:02053E000000BB
:00000001FF
